{"abi":[{"type":"constructor","inputs":[{"name":"_deodToken","type":"address","internalType":"address"}],"stateMutability":"nonpayable"},{"type":"function","name":"BuyNefiToken","inputs":[{"name":"amountIn","type":"uint256","internalType":"uint256"}],"outputs":[],"stateMutability":"nonpayable"},{"type":"function","name":"Register","inputs":[{"name":"referrer","type":"address","internalType":"address"}],"outputs":[],"stateMutability":"nonpayable"},{"type":"function","name":"allowance","inputs":[{"name":"owner","type":"address","internalType":"address"},{"name":"spender","type":"address","internalType":"address"}],"outputs":[{"name":"","type":"uint256","internalType":"uint256"}],"stateMutability":"view"},{"type":"function","name":"approve","inputs":[{"name":"spender","type":"address","internalType":"address"},{"name":"amount","type":"uint256","internalType":"uint256"}],"outputs":[{"name":"","type":"bool","internalType":"bool"}],"stateMutability":"nonpayable"},{"type":"function","name":"balanceOf","inputs":[{"name":"account","type":"address","internalType":"address"}],"outputs":[{"name":"","type":"uint256","internalType":"uint256"}],"stateMutability":"view"},{"type":"function","name":"buyHistory","inputs":[{"name":"","type":"uint256","internalType":"uint256"}],"outputs":[{"name":"buyer","type":"address","internalType":"address"},{"name":"amountInDeod","type":"uint256","internalType":"uint256"},{"name":"userAmount","type":"uint256","internalType":"uint256"},{"name":"referrer","type":"address","internalType":"address"},{"name":"timestamp","type":"uint256","internalType":"uint256"},{"name":"buyId","type":"uint256","internalType":"uint256"}],"stateMutability":"view"},{"type":"function","name":"buyRecordsByUser","inputs":[{"name":"","type":"address","internalType":"address"},{"name":"","type":"uint256","internalType":"uint256"}],"outputs":[{"name":"amount","type":"uint256","internalType":"uint256"},{"name":"timestamp","type":"uint256","internalType":"uint256"},{"name":"transactionId","type":"uint256","internalType":"uint256"}],"stateMutability":"view"},{"type":"function","name":"circulatingNefiSupply","inputs":[],"outputs":[{"name":"","type":"uint256","internalType":"uint256"}],"stateMutability":"view"},{"type":"function","name":"claimTokens","inputs":[{"name":"amount","type":"uint256","internalType":"uint256"}],"outputs":[],"stateMutability":"nonpayable"},{"type":"function","name":"claimedNefiTokens","inputs":[{"name":"","type":"address","internalType":"address"}],"outputs":[{"name":"","type":"uint256","internalType":"uint256"}],"stateMutability":"view"},{"type":"function","name":"decimals","inputs":[],"outputs":[{"name":"","type":"uint8","internalType":"uint8"}],"stateMutability":"view"},{"type":"function","name":"defaultReferrer","inputs":[],"outputs":[{"name":"","type":"address","internalType":"address"}],"stateMutability":"view"},{"type":"function","name":"deodStaked","inputs":[{"name":"","type":"address","internalType":"address"}],"outputs":[{"name":"","type":"uint256","internalType":"uint256"}],"stateMutability":"view"},{"type":"function","name":"deodToken","inputs":[],"outputs":[{"name":"","type":"address","internalType":"contract IERC20"}],"stateMutability":"view"},{"type":"function","name":"getCurrentNefiPrice","inputs":[],"outputs":[{"name":"","type":"uint256","internalType":"uint256"}],"stateMutability":"view"},{"type":"function","name":"name","inputs":[],"outputs":[{"name":"","type":"string","internalType":"string"}],"stateMutability":"view"},{"type":"function","name":"nextBuyId","inputs":[],"outputs":[{"name":"","type":"uint256","internalType":"uint256"}],"stateMutability":"view"},{"type":"function","name":"nextSellId","inputs":[],"outputs":[{"name":"","type":"uint256","internalType":"uint256"}],"stateMutability":"view"},{"type":"function","name":"nullAddress","inputs":[],"outputs":[{"name":"","type":"address","internalType":"address"}],"stateMutability":"view"},{"type":"function","name":"referralRewards","inputs":[{"name":"","type":"uint256","internalType":"uint256"}],"outputs":[{"name":"","type":"uint256","internalType":"uint256"}],"stateMutability":"view"},{"type":"function","name":"referralRewardsAccumulated","inputs":[{"name":"","type":"address","internalType":"address"}],"outputs":[{"name":"","type":"uint256","internalType":"uint256"}],"stateMutability":"view"},{"type":"function","name":"referrals","inputs":[{"name":"","type":"address","internalType":"address"}],"outputs":[{"name":"","type":"address","internalType":"address"}],"stateMutability":"view"},{"type":"function","name":"sellHistory","inputs":[{"name":"","type":"uint256","internalType":"uint256"}],"outputs":[{"name":"seller","type":"address","internalType":"address"},{"name":"amountInNefi","type":"uint256","internalType":"uint256"},{"name":"deodReturned","type":"uint256","internalType":"uint256"},{"name":"timestamp","type":"uint256","internalType":"uint256"},{"name":"sellId","type":"uint256","internalType":"uint256"}],"stateMutability":"view"},{"type":"function","name":"sellNefiToken","inputs":[{"name":"amountIn","type":"uint256","internalType":"uint256"}],"outputs":[],"stateMutability":"nonpayable"},{"type":"function","name":"sellRecordsByUser","inputs":[{"name":"","type":"address","internalType":"address"},{"name":"","type":"uint256","internalType":"uint256"}],"outputs":[{"name":"amount","type":"uint256","internalType":"uint256"},{"name":"timestamp","type":"uint256","internalType":"uint256"},{"name":"transactionId","type":"uint256","internalType":"uint256"}],"stateMutability":"view"},{"type":"function","name":"symbol","inputs":[],"outputs":[{"name":"","type":"string","internalType":"string"}],"stateMutability":"view"},{"type":"function","name":"totalDeodStaked","inputs":[],"outputs":[{"name":"","type":"uint256","internalType":"uint256"}],"stateMutability":"view"},{"type":"function","name":"totalSupply","inputs":[],"outputs":[{"name":"","type":"uint256","internalType":"uint256"}],"stateMutability":"view"},{"type":"function","name":"transfer","inputs":[{"name":"recipient","type":"address","internalType":"address"},{"name":"amount","type":"uint256","internalType":"uint256"}],"outputs":[{"name":"","type":"bool","internalType":"bool"}],"stateMutability":"nonpayable"},{"type":"function","name":"transferFrom","inputs":[{"name":"sender","type":"address","internalType":"address"},{"name":"recipient","type":"address","internalType":"address"},{"name":"amount","type":"uint256","internalType":"uint256"}],"outputs":[{"name":"","type":"bool","internalType":"bool"}],"stateMutability":"nonpayable"},{"type":"function","name":"unclaimedNefiTokens","inputs":[{"name":"","type":"address","internalType":"address"}],"outputs":[{"name":"","type":"uint256","internalType":"uint256"}],"stateMutability":"view"},{"type":"event","name":"Approval","inputs":[{"name":"owner","type":"address","indexed":true,"internalType":"address"},{"name":"spender","type":"address","indexed":true,"internalType":"address"},{"name":"value","type":"uint256","indexed":false,"internalType":"uint256"}],"anonymous":false},{"type":"event","name":"NefiTokenMinted","inputs":[{"name":"nefiMinted","type":"uint256","indexed":false,"internalType":"uint256"},{"name":"currentNefiPrice","type":"uint256","indexed":false,"internalType":"uint256"},{"name":"user","type":"address","indexed":false,"internalType":"address"}],"anonymous":false},{"type":"event","name":"NefiTokenSold","inputs":[{"name":"nefiSold","type":"uint256","indexed":false,"internalType":"uint256"},{"name":"currentNefiPrice","type":"uint256","indexed":false,"internalType":"uint256"},{"name":"deodReturned","type":"uint256","indexed":false,"internalType":"uint256"},{"name":"user","type":"address","indexed":false,"internalType":"address"}],"anonymous":false},{"type":"event","name":"ReferralRegistered","inputs":[{"name":"user","type":"address","indexed":false,"internalType":"address"},{"name":"referrer","type":"address","indexed":false,"internalType":"address"}],"anonymous":false},{"type":"event","name":"TokensClaimed","inputs":[{"name":"user","type":"address","indexed":false,"internalType":"address"},{"name":"amount","type":"uint256","indexed":false,"internalType":"uint256"}],"anonymous":false},{"type":"event","name":"Transfer","inputs":[{"name":"from","type":"address","indexed":true,"internalType":"address"},{"name":"to","type":"address","indexed":true,"internalType":"address"},{"name":"value","type":"uint256","indexed":false,"internalType":"uint256"}],"anonymous":false}],"bytecode":{"object":"0x600380546001600160a01b0319908116731234567890123456789012345678901234567890179091556004805490911661dead179055610160604052600760a0818152600160c081905260e0819052610100819052610120819052610140526200006c91906006620000b4565b50603c6019553480156200007f57600080fd5b5060405162001e9b38038062001e9b833981016040819052620000a29162000113565b6001600160a01b031660805262000145565b8260068101928215620000ea579160200282015b82811115620000ea578251829060ff16905591602001919060010190620000c8565b50620000f8929150620000fc565b5090565b5b80821115620000f85760008155600101620000fd565b6000602082840312156200012657600080fd5b81516001600160a01b03811681146200013e57600080fd5b9392505050565b608051611d1e6200017d600039600081816103dc0152818161099101528181610a8901528181611042015261123c0152611d1e6000f3fe608060405234801561001057600080fd5b50600436106101e55760003560e01c80636e4adaa71161010f578063b36ad347116100a2578063df9fb69211610071578063df9fb69214610526578063eeda149c1461052f578063f446a00414610542578063f48583f7146105d057600080fd5b8063b36ad347146104bf578063b9298cb8146104d2578063bdac2a38146104e5578063dd62ed3e146104ed57600080fd5b806395d89b41116100de57806395d89b411461045a5780639ca423b31461047a578063a4297a5a146104a3578063a9059cbb146104ac57600080fd5b80636e4adaa7146103d757806370a08231146103fe5780638643bfe31461042757806391b331251461044757600080fd5b80632aab514e1161018757806346e04a2f1161015657806346e04a2f1461037d5780634b6d10b914610390578063551edf90146103a35780636e16de47146103ce57600080fd5b80632aab514e146102cc57806330cfb08a146102d5578063313ce5671461034e5780633a4741dd1461035d57600080fd5b80630e51817d116101c35780630e51817d1461025957806318160ddd1461028757806323b872dd14610299578063285cf862146102ac57600080fd5b806306fdde03146101ea578063095ea7b3146102215780630df292ba14610244575b600080fd5b6040805180820190915260098152682732b334aa37b5b2b760b91b60208201525b6040516102189190611a9c565b60405180910390f35b61023461022f366004611b06565b6105f0565b6040519015158152602001610218565b610257610252366004611b30565b610607565b005b61026c610267366004611b06565b610b5e565b60408051938452602084019290925290820152606001610218565b6000545b604051908152602001610218565b6102346102a7366004611b49565b610ba0565b61028b6102ba366004611b85565b60116020526000908152604090205481565b61028b60135481565b61031c6102e3366004611b30565b601560205260009081526040902080546001820154600283015460038401546004909401546001600160a01b0390931693919290919085565b604080516001600160a01b0390961686526020860194909452928401919091526060830152608082015260a001610218565b60405160128152602001610218565b61028b61036b366004611b85565b600f6020526000908152604090205481565b61025761038b366004611b30565b610c76565b61028b61039e366004611b30565b610de6565b6004546103b6906001600160a01b031681565b6040516001600160a01b039091168152602001610218565b61028b60065481565b6103b67f000000000000000000000000000000000000000000000000000000000000000081565b61028b61040c366004611b85565b6001600160a01b031660009081526001602052604090205490565b61028b610435366004611b85565b600e6020526000908152604090205481565b6003546103b6906001600160a01b031681565b6040805180820190915260048152634e45464960e01b602082015261020b565b6103b6610488366004611b85565b600d602052600090815260409020546001600160a01b031681565b61028b60055481565b6102346104ba366004611b06565b610dfd565b61026c6104cd366004611b06565b610e0a565b6102576104e0366004611b30565b610e26565b61028b61134b565b61028b6104fb366004611ba7565b6001600160a01b03918216600090815260026020908152604080832093909416825291909152205490565b61028b60125481565b61025761053d366004611b85565b61138b565b610592610550366004611b30565b6014602052600090815260409020805460018201546002830154600384015460048501546005909501546001600160a01b039485169593949293919092169186565b604080516001600160a01b039788168152602081019690965285019390935293166060830152608082019290925260a081019190915260c001610218565b61028b6105de366004611b85565b60106020526000908152604090205481565b60006105fd338484611568565b5060015b92915050565b600081118015610621575069021e19e0c9bab24000008111155b6106985760405162461bcd60e51b815260206004820152603d60248201527f416d6f756e74206d7573742062652067726561746572207468616e203020616e60448201527f64206c657373207468616e206f7220657175616c20746f20313030303000000060648201526084015b60405180910390fd5b60006106a261134b565b9050600060646106b3846003611bf0565b6106bd9190611c07565b905060006106cb8285611c29565b905080600560008282546106df9190611c3c565b9091555060009050836106fa86670de0b6b3a7640000611bf0565b6107049190611c07565b905060006064610715836046611bf0565b61071f9190611c07565b905060006064610730846012611bf0565b61073a9190611c07565b90506000606461074b85600c611bf0565b6107559190611c07565b905060006107638386611c29565b905061076f8285611c3c565b600660008282546107809190611c3c565b9091555050336000908152600f6020526040812080548b92906107a4908490611c3c565b909155505033600090815260106020526040812080548692906107c8908490611c3c565b9091555050336000908152600d60205260409020546001600160a01b0316806107f957506003546001600160a01b03165b61080481848861168d565b33600090815260186020526040812042905560128054908261082583611c4f565b9190505590506040518060c00160405280336001600160a01b031681526020018c8152602001878152602001836001600160a01b0316815260200142815260200160125481525060146000601254815260200190815260200160002060008201518160000160006101000a8154816001600160a01b0302191690836001600160a01b03160217905550602082015181600101556040820151816002015560608201518160030160006101000a8154816001600160a01b0302191690836001600160a01b031602179055506080820151816004015560a0820151816005015590505060166000336001600160a01b03166001600160a01b0316815260200190815260200160002060405180606001604052808a815260200142815260200183815250908060018154018082558091505060019003906000526020600020906003020160009091909190915060008201518160000155602082015181600101556040820151816002015550507f00000000000000000000000000000000000000000000000000000000000000006001600160a01b03166323b872dd33308e6040518463ffffffff1660e01b81526004016109fe939291906001600160a01b039384168152919092166020820152604081019190915260600190565b6020604051808303816000875af1158015610a1d573d6000803e3d6000fd5b505050506040513d601f19601f82011682018060405250810190610a419190611c68565b610a5d5760405162461bcd60e51b815260040161068f90611c8a565b6004805460405163a9059cbb60e01b81526001600160a01b0391821692810192909252602482018b90527f0000000000000000000000000000000000000000000000000000000000000000169063a9059cbb906044016020604051808303816000875af1158015610ad2573d6000803e3d6000fd5b505050506040513d601f19601f82011682018060405250810190610af69190611c68565b610b125760405162461bcd60e51b815260040161068f90611c8a565b60408051848152602081018c9052338183015290517fff202f8995fac0c99c61dac58af97cff8ac414907b717e731084ab19230f4dae9181900360600190a15050505050505050505050565b60166020528160005260406000208181548110610b7a57600080fd5b600091825260209091206003909102018054600182015460029092015490935090915083565b6000610bad8484846117e0565b6001600160a01b0384166000908152600260209081526040808320338452909152902054821115610c315760405162461bcd60e51b815260206004820152602860248201527f42455032303a207472616e7366657220616d6f756e74206578636565647320616044820152676c6c6f77616e636560c01b606482015260840161068f565b6001600160a01b038416600090815260026020908152604080832033808552925290912054610c6c918691610c67908690611c29565b611568565b5060019392505050565b6a108b2a2c2802909400000081600054610c909190611c3c565b1115610cd45760405162461bcd60e51b815260206004820152601360248201527213585e081cdd5c1c1b1e48195e18d959591959606a1b604482015260640161068f565b33600090815260106020526040902054811115610d335760405162461bcd60e51b815260206004820152601b60248201527f4e6f7420656e6f75676820756e636c61696d656420746f6b656e730000000000604482015260640161068f565b3360009081526010602052604081208054839290610d52908490611c29565b90915550503360009081526011602052604081208054839290610d76908490611c3c565b925050819055508060066000828254610d8f9190611c29565b90915550610d9f905030826119be565b610daa3033836117e0565b60408051338152602081018390527f896e034966eaaf1adc54acc0f257056febbd300c9e47182cf761982cf1f5e430910160405180910390a150565b60078160068110610df657600080fd5b0154905081565b60006105fd3384846117e0565b60176020528160005260406000208181548110610b7a57600080fd5b60008111610e765760405162461bcd60e51b815260206004820152601d60248201527f416d6f756e74206d7573742062652067726561746572207468616e2030000000604482015260640161068f565b6000610e8061134b565b33600090815260106020526040902054909150821115610eee5760405162461bcd60e51b815260206004820152602360248201527f4e6f7420656e6f75676820756e636c61696d656420746f6b656e7320746f2073604482015262195b1b60ea1b606482015260840161068f565b6000670de0b6b3a7640000610f038385611bf0565b610f0d9190611c07565b905060006064610f1e83600f611bf0565b610f289190611c07565b90506000610f368284611c29565b336000908152600f602052604081205491925090610f55906002611bf0565b905080821115610fbb5760405162461bcd60e51b815260206004820152602b60248201527f43616e6e6f74207769746864726177206d6f7265207468616e203278206f662060448201526a1cdd185ad95908111153d160aa1b606482015260840161068f565b3360009081526010602052604081208054889290610fda908490611c29565b925050819055508560066000828254610ff39190611c29565b92505081905550816005600082825461100c9190611c29565b90915550503360009081526018602052604090819020429055516370a0823160e01b815230600482015282906001600160a01b037f000000000000000000000000000000000000000000000000000000000000000016906370a0823190602401602060405180830381865afa158015611089573d6000803e3d6000fd5b505050506040513d601f19601f820116820180604052508101906110ad9190611cb9565b10156110fb5760405162461bcd60e51b815260206004820152601b60248201527f4e6f7420656e6f7567682044454f4420696e20636f6e74726163740000000000604482015260640161068f565b601380546000918261110c83611c4f565b9190505590506040518060a00160405280336001600160a01b0316815260200188815260200184815260200142815260200160135481525060156000601354815260200190815260200160002060008201518160000160006101000a8154816001600160a01b0302191690836001600160a01b031602179055506020820151816001015560408201518160020155606082015181600301556080820151816004015590505060176000336001600160a01b03166001600160a01b03168152602001908152602001600020604051806060016040528089815260200142815260200183815250908060018154018082558091505060019003906000526020600020906003020160009091909190915060008201518160000155602082015181600101556040820151816002015550507f00000000000000000000000000000000000000000000000000000000000000006001600160a01b031663a9059cbb33856040518363ffffffff1660e01b815260040161129c9291906001600160a01b03929092168252602082015260400190565b6020604051808303816000875af11580156112bb573d6000803e3d6000fd5b505050506040513d601f19601f820116820180604052508101906112df9190611c68565b6112fb5760405162461bcd60e51b815260040161068f90611c8a565b60408051888152602081018890529081018490523360608201527fe5da9355496207f02e2a79efa9b4b37968b33dce2f00713fde497444578af5c39060800160405180910390a150505050505050565b60006006546000036113645750670de0b6b3a764000090565b60065460055461137c90670de0b6b3a7640000611bf0565b6113869190611c07565b905090565b336000908152600d602052604090205481906001600160a01b038083169116036113f75760405162461bcd60e51b815260206004820152601e60248201527f43616e6e6f7420736574207265636970726f63616c2072656665727265720000604482015260640161068f565b813b63ffffffff161561144c5760405162461bcd60e51b815260206004820152601d60248201527f436f6e7472616374732063616e6e6f7420626520726566657272657273000000604482015260640161068f565b336000908152600d60205260409020546001600160a01b0316156114a95760405162461bcd60e51b8152602060048201526014602482015273149959995c9c995c88185b1c9958591e481cd95d60621b604482015260640161068f565b336001600160a01b038316036115015760405162461bcd60e51b815260206004820152601860248201527f53656c662d726566657272616c2070726f686962697465640000000000000000604482015260640161068f565b336000818152600d602090815260409182902080546001600160a01b0319166001600160a01b0387169081179091558251938452908301527f5f1ca2fcc108b751843a763e60d2201f593516109d7dbb1b700468f2d4190bb7910160405180910390a15050565b6001600160a01b0383166115ca5760405162461bcd60e51b8152602060048201526024808201527f42455032303a20617070726f76652066726f6d20746865207a65726f206164646044820152637265737360e01b606482015260840161068f565b6001600160a01b03821661162b5760405162461bcd60e51b815260206004820152602260248201527f42455032303a20617070726f766520746f20746865207a65726f206164647265604482015261737360f01b606482015260840161068f565b6001600160a01b0383811660008181526002602090815260408083209487168084529482529182902085905590518481527f8c5be1e5ebec7d5bd14f71427d1e84f3dd0314c0f7b2291e5b200ac8c7c3b92591015b60405180910390a3505050565b828260005b6006811015611773576001600160a01b038316156117735760006064600783600681106116c1576116c1611cd2565b01546116cd9087611bf0565b6116d79190611c07565b90506116e38184611c29565b6001600160a01b038516600090815260106020526040812080549295508392909190611710908490611c3c565b90915550506001600160a01b0384166000908152600e60205260408120805483929061173d908490611c3c565b9091555050506001600160a01b039283166000908152600d6020526040902054909216918061176b81611c4f565b915050611692565b5080156117d9576003546001600160a01b0316600090815260106020526040812080548392906117a4908490611c3c565b90915550506003546001600160a01b03166000908152600e6020526040812080548392906117d3908490611c3c565b90915550505b5050505050565b6001600160a01b0383166118445760405162461bcd60e51b815260206004820152602560248201527f42455032303a207472616e736665722066726f6d20746865207a65726f206164604482015264647265737360d81b606482015260840161068f565b6001600160a01b0382166118a65760405162461bcd60e51b815260206004820152602360248201527f42455032303a207472616e7366657220746f20746865207a65726f206164647260448201526265737360e81b606482015260840161068f565b6001600160a01b03831660009081526001602052604090205481111561191d5760405162461bcd60e51b815260206004820152602660248201527f42455032303a207472616e7366657220616d6f756e7420657863656564732062604482015265616c616e636560d01b606482015260840161068f565b6001600160a01b03831660009081526001602052604081208054839290611945908490611c29565b90915550506001600160a01b03821660009081526001602052604081208054839290611972908490611c3c565b92505081905550816001600160a01b0316836001600160a01b03167fddf252ad1be2c89b69c2b068fc378daa952ba7f163c4a11628f55a4df523b3ef8360405161168091815260200190565b6001600160a01b038216611a145760405162461bcd60e51b815260206004820152601f60248201527f42455032303a206d696e7420746f20746865207a65726f206164647265737300604482015260640161068f565b80600080828254611a259190611c3c565b90915550506001600160a01b03821660009081526001602052604081208054839290611a52908490611c3c565b90915550506040518181526001600160a01b038316906000907fddf252ad1be2c89b69c2b068fc378daa952ba7f163c4a11628f55a4df523b3ef9060200160405180910390a35050565b600060208083528351808285015260005b81811015611ac957858101830151858201604001528201611aad565b506000604082860101526040601f19601f8301168501019250505092915050565b80356001600160a01b0381168114611b0157600080fd5b919050565b60008060408385031215611b1957600080fd5b611b2283611aea565b946020939093013593505050565b600060208284031215611b4257600080fd5b5035919050565b600080600060608486031215611b5e57600080fd5b611b6784611aea565b9250611b7560208501611aea565b9150604084013590509250925092565b600060208284031215611b9757600080fd5b611ba082611aea565b9392505050565b60008060408385031215611bba57600080fd5b611bc383611aea565b9150611bd160208401611aea565b90509250929050565b634e487b7160e01b600052601160045260246000fd5b808202811582820484141761060157610601611bda565b600082611c2457634e487b7160e01b600052601260045260246000fd5b500490565b8181038181111561060157610601611bda565b8082018082111561060157610601611bda565b600060018201611c6157611c61611bda565b5060010190565b600060208284031215611c7a57600080fd5b81518015158114611ba057600080fd5b602080825260159082015274151bdad95b881d1c985b9cd9995c8819985a5b1959605a1b604082015260600190565b600060208284031215611ccb57600080fd5b5051919050565b634e487b7160e01b600052603260045260246000fdfea26469706673582212203d61f05fdcb5405fba894ee46fdd1d9f48bea3e7e34a769f64876ee710bdccb764736f6c63430008140033","linkReferences":{}},"methodIdentifiers":{"BuyNefiToken(uint256)":"0df292ba","Register(address)":"eeda149c","allowance(address,address)":"dd62ed3e","approve(address,uint256)":"095ea7b3","balanceOf(address)":"70a08231","buyHistory(uint256)":"f446a004","buyRecordsByUser(address,uint256)":"0e51817d","circulatingNefiSupply()":"6e16de47","claimTokens(uint256)":"46e04a2f","claimedNefiTokens(address)":"285cf862","decimals()":"313ce567","defaultReferrer()":"91b33125","deodStaked(address)":"3a4741dd","deodToken()":"6e4adaa7","getCurrentNefiPrice()":"bdac2a38","name()":"06fdde03","nextBuyId()":"df9fb692","nextSellId()":"2aab514e","nullAddress()":"551edf90","referralRewards(uint256)":"4b6d10b9","referralRewardsAccumulated(address)":"8643bfe3","referrals(address)":"9ca423b3","sellHistory(uint256)":"30cfb08a","sellNefiToken(uint256)":"b9298cb8","sellRecordsByUser(address,uint256)":"b36ad347","symbol()":"95d89b41","totalDeodStaked()":"a4297a5a","totalSupply()":"18160ddd","transfer(address,uint256)":"a9059cbb","transferFrom(address,address,uint256)":"23b872dd","unclaimedNefiTokens(address)":"f48583f7"},"id":28}